:020000040000FA
:0400000000000528CF
:040004000034003490
:02000800682866
:06000A0007309F00A0304A
:100010008B00031383160030850000308600873084
:1000200081008312C33081000A30B300850186014C
:100030000030B4005F30B8001330B5000430B600B3
:100040000530B70005100130860085144920851061
:1000500049200C30860085144920851049203C3009
:1000600086008514492085104920851553200000FD
:1000700000008511532035280510492001308600E5
:100080004420051449200800851449208510492082
:100090000800C0010A30C1005030C000C00B4E281B
:1000A000C10B4C280800000000003808B900B90B4B
:1000B00057283508B00000003608B10000003708A6
:1000C000B200B20B6128B10B5E28B00B5B280800B0
:1000D0008B13B30B71283408B40A75280A30B300A7
:1000E000C33081000B118B17090082070C29C0282F
:1000F000D328D328AD280C290C29C028D328D328ED
:10010000AD280C290C29C028D328D328AD28F928DC
:100110009A289A289A289A289A28D328D328D32824
:10012000D328C028AD28F9289A289A289A28E628A2
:10013000F92805280430B8001030B5000530B600A5
:100140000530B7003C205230860044204530860000
:1001500044202030860044206E287C30B8001330C4
:10016000B5000330B6000330B7003C2053308600A2
:1001700044204F30860044204C30860044206E28B6
:100180001930B8000E30B5000530B6000330B700A6
:100190003C204C30860044204130860044202030F2
:1001A000860044206E282430B8001330B500033098
:1001B000B6000330B7003C2053308600442049305D
:1001C000860044202030860044206E282030B8006D
:1001D0001E30B5000330B6000330B7003C204D3070
:1001E0008600442049308600442020308600442088
:1001F0006E282330B8001C30B5000330B600033041
:10020000B7003C2046308600442041308600442020
:100210002030860044206E285F30B8001330B500CF
:100220000430B6000530B7003C204430860044203E
:0E0230004F30860044202030860044206E2887
:02400E00193F58
:00000001FF
